{
  "contractName": "Arbitrage",
  "abi": [
    {
      "inputs": [],
      "name": "buyRouter",
      "outputs": [
        {
          "internalType": "contract IUniswapV2Router02",
          "name": "",
          "type": "address"
        }
      ],
      "stateMutability": "view",
      "type": "function",
      "constant": true
    },
    {
      "inputs": [],
      "name": "owner",
      "outputs": [
        {
          "internalType": "address",
          "name": "",
          "type": "address"
        }
      ],
      "stateMutability": "view",
      "type": "function",
      "constant": true
    },
    {
      "inputs": [],
      "name": "sellRouter",
      "outputs": [
        {
          "internalType": "contract IUniswapV2Router02",
          "name": "",
          "type": "address"
        }
      ],
      "stateMutability": "view",
      "type": "function",
      "constant": true
    },
    {
      "inputs": [
        {
          "internalType": "address",
          "name": "_flashLoanPool",
          "type": "address"
        },
        {
          "internalType": "address",
          "name": "_token0",
          "type": "address"
        },
        {
          "internalType": "address",
          "name": "_token1",
          "type": "address"
        },
        {
          "internalType": "uint256",
          "name": "_flashAmount",
          "type": "uint256"
        },
        {
          "internalType": "address",
          "name": "_buyRouter",
          "type": "address"
        },
        {
          "internalType": "address",
          "name": "_sellRouter",
          "type": "address"
        }
      ],
      "name": "executeTrade",
      "outputs": [],
      "stateMutability": "nonpayable",
      "type": "function"
    },
    {
      "inputs": [
        {
          "internalType": "address",
          "name": "tokenA",
          "type": "address"
        },
        {
          "internalType": "address",
          "name": "tokenB",
          "type": "address"
        },
        {
          "internalType": "uint256",
          "name": "truePriceTokenA",
          "type": "uint256"
        },
        {
          "internalType": "uint256",
          "name": "truePriceTokenB",
          "type": "uint256"
        },
        {
          "internalType": "uint256",
          "name": "maxSpendTokenA",
          "type": "uint256"
        },
        {
          "internalType": "uint256",
          "name": "maxSpendTokenB",
          "type": "uint256"
        },
        {
          "internalType": "address",
          "name": "factory",
          "type": "address"
        }
      ],
      "name": "getMaxSwap",
      "outputs": [
        {
          "internalType": "uint256",
          "name": "",
          "type": "uint256"
        }
      ],
      "stateMutability": "view",
      "type": "function",
      "constant": true
    },
    {
      "inputs": [
        {
          "internalType": "address",
          "name": "sender",
          "type": "address"
        },
        {
          "internalType": "uint256",
          "name": "baseAmount",
          "type": "uint256"
        },
        {
          "internalType": "uint256",
          "name": "quoteAmount",
          "type": "uint256"
        },
        {
          "internalType": "bytes",
          "name": "data",
          "type": "bytes"
        }
      ],
      "name": "DVMFlashLoanCall",
      "outputs": [],
      "stateMutability": "nonpayable",
      "type": "function"
    },
    {
      "inputs": [
        {
          "internalType": "address",
          "name": "sender",
          "type": "address"
        },
        {
          "internalType": "uint256",
          "name": "baseAmount",
          "type": "uint256"
        },
        {
          "internalType": "uint256",
          "name": "quoteAmount",
          "type": "uint256"
        },
        {
          "internalType": "bytes",
          "name": "data",
          "type": "bytes"
        }
      ],
      "name": "DPPFlashLoanCall",
      "outputs": [],
      "stateMutability": "nonpayable",
      "type": "function"
    },
    {
      "inputs": [
        {
          "internalType": "address",
          "name": "sender",
          "type": "address"
        },
        {
          "internalType": "uint256",
          "name": "baseAmount",
          "type": "uint256"
        },
        {
          "internalType": "uint256",
          "name": "quoteAmount",
          "type": "uint256"
        },
        {
          "internalType": "bytes",
          "name": "data",
          "type": "bytes"
        }
      ],
      "name": "DSPFlashLoanCall",
      "outputs": [],
      "stateMutability": "nonpayable",
      "type": "function"
    }
  ],
  "bytecode": "0x608060405234801561001057600080fd5b50612414806100206000396000f3fe608060405234801561001057600080fd5b50600436106100885760003560e01c8063d2435d2d1161005b578063d2435d2d14610270578063d5b99797146102a4578063e775addc14610351578063eb2021c31461041157610088565b80637ed1f1dd1461008d5780638da5cb5b1461013a57806393ed27951461016e578063a4f03ca6146101a2575b600080fd5b610138600480360360808110156100a357600080fd5b81019080803573ffffffffffffffffffffffffffffffffffffffff1690602001909291908035906020019092919080359060200190929190803590602001906401000000008111156100f457600080fd5b82018360208201111561010657600080fd5b8035906020019184600183028401116401000000008311171561012857600080fd5b90919293919293905050506104be565b005b6101426104d2565b604051808273ffffffffffffffffffffffffffffffffffffffff16815260200191505060405180910390f35b6101766104f8565b604051808273ffffffffffffffffffffffffffffffffffffffff16815260200191505060405180910390f35b61026e600480360360c08110156101b857600080fd5b81019080803573ffffffffffffffffffffffffffffffffffffffff169060200190929190803573ffffffffffffffffffffffffffffffffffffffff169060200190929190803573ffffffffffffffffffffffffffffffffffffffff16906020019092919080359060200190929190803573ffffffffffffffffffffffffffffffffffffffff169060200190929190803573ffffffffffffffffffffffffffffffffffffffff16906020019092919050505061051e565b005b6102786105dc565b604051808273ffffffffffffffffffffffffffffffffffffffff16815260200191505060405180910390f35b61034f600480360360808110156102ba57600080fd5b81019080803573ffffffffffffffffffffffffffffffffffffffff16906020019092919080359060200190929190803590602001909291908035906020019064010000000081111561030b57600080fd5b82018360208201111561031d57600080fd5b8035906020019184600183028401116401000000008311171561033f57600080fd5b9091929391929390505050610600565b005b6103fb600480360360e081101561036757600080fd5b81019080803573ffffffffffffffffffffffffffffffffffffffff169060200190929190803573ffffffffffffffffffffffffffffffffffffffff16906020019092919080359060200190929190803590602001909291908035906020019092919080359060200190929190803573ffffffffffffffffffffffffffffffffffffffff169060200190929190505050610614565b6040518082815260200191505060405180910390f35b6104bc6004803603608081101561042757600080fd5b81019080803573ffffffffffffffffffffffffffffffffffffffff16906020019092919080359060200190929190803590602001909291908035906020019064010000000081111561047857600080fd5b82018360208201111561048a57600080fd5b803590602001918460018302840111640100000000831117156104ac57600080fd5b90919293919293905050506108cf565b005b6104cb85858585856108e3565b5050505050565b600260009054906101000a900473ffffffffffffffffffffffffffffffffffffffff1681565b600160009054906101000a900473ffffffffffffffffffffffffffffffffffffffff1681565b60008573ffffffffffffffffffffffffffffffffffffffff166370a08231306040518263ffffffff1660e01b8152600401808273ffffffffffffffffffffffffffffffffffffffff16815260200191505060206040518083038186803b15801561058757600080fd5b505afa15801561059b573d6000803e3d6000fd5b505050506040513d60208110156105b157600080fd5b810190808051906020019092919050505090506105d387878688858888611035565b50505050505050565b60008054906101000a900473ffffffffffffffffffffffffffffffffffffffff1681565b61060d85858585856108e3565b5050505050565b6000808614158015610627575060008514155b610699576040517f08c379a000000000000000000000000000000000000000000000000000000000815260040180806020018281038252601e8152602001807f4578616d706c6553776170546f50726963653a205a45524f5f5052494345000081525060200191505060405180910390fd5b6000841415806106aa575060008314155b61071c576040517f08c379a000000000000000000000000000000000000000000000000000000000815260040180806020018281038252601e8152602001807f4578616d706c6553776170546f50726963653a205a45524f5f5350454e44000081525060200191505060405180910390fd5b60008060008061072d868d8d6113bf565b9150915061073d8a8a84846114e8565b80945081955050505050600081116107a0576040517f08c379a00000000000000000000000000000000000000000000000000000000081526004018080602001828103825260228152602001806123bd6022913960400191505060405180910390fd5b6000826107ad57856107af565b865b9050808211156107bd578091505b6000836107ca578a6107cc565b8b5b90506000846107db578c6107dd565b8b5b90506000600267ffffffffffffffff811180156107f957600080fd5b506040519080825280602002602001820160405280156108285781602001602082028036833780820191505090505b509050828160008151811061083957fe5b602002602001019073ffffffffffffffffffffffffffffffffffffffff16908173ffffffffffffffffffffffffffffffffffffffff1681525050818160018151811061088157fe5b602002602001019073ffffffffffffffffffffffffffffffffffffffff16908173ffffffffffffffffffffffffffffffffffffffff1681525050849650505050505050979650505050505050565b6108dc85858585856108e3565b5050505050565b6000806000806000806000888860e08110156108fe57600080fd5b81019080803573ffffffffffffffffffffffffffffffffffffffff169060200190929190803573ffffffffffffffffffffffffffffffffffffffff16906020019092919080359060200190929190803573ffffffffffffffffffffffffffffffffffffffff16906020019092919080359060200190929190803573ffffffffffffffffffffffffffffffffffffffff169060200190929190803573ffffffffffffffffffffffffffffffffffffffff169060200190929190505050965096509650965096509650965060008673ffffffffffffffffffffffffffffffffffffffff166370a08231306040518263ffffffff1660e01b8152600401808273ffffffffffffffffffffffffffffffffffffffff16815260200191505060206040518083038186803b158015610a3057600080fd5b505afa158015610a44573d6000803e3d6000fd5b505050506040513d6020811015610a5a57600080fd5b810190808051906020019092919050505090503073ffffffffffffffffffffffffffffffffffffffff168d73ffffffffffffffffffffffffffffffffffffffff16148015610ad357508773ffffffffffffffffffffffffffffffffffffffff163373ffffffffffffffffffffffffffffffffffffffff16145b610b45576040517f08c379a00000000000000000000000000000000000000000000000000000000081526004018080602001828103825260138152602001807f48414e444c455f464c4153485f44454e4945440000000000000000000000000081525060200191505060405180910390fd5b8584820314610bbc576040517f08c379a000000000000000000000000000000000000000000000000000000000815260040180806020018281038252601d8152602001807f636f6e747261637420646964206e6f742067657420746865206c6f616e00000081525060200191505060405180910390fd5b6000600267ffffffffffffffff81118015610bd657600080fd5b50604051908082528060200260200182016040528015610c055781602001602082028036833780820191505090505b5090508781600081518110610c1657fe5b602002602001019073ffffffffffffffffffffffffffffffffffffffff16908173ffffffffffffffffffffffffffffffffffffffff16815250508581600181518110610c5e57fe5b602002602001019073ffffffffffffffffffffffffffffffffffffffff16908173ffffffffffffffffffffffffffffffffffffffff1681525050610ca581886000876115e5565b8581600081518110610cb357fe5b602002602001019073ffffffffffffffffffffffffffffffffffffffff16908173ffffffffffffffffffffffffffffffffffffffff16815250508781600181518110610cfb57fe5b602002602001019073ffffffffffffffffffffffffffffffffffffffff16908173ffffffffffffffffffffffffffffffffffffffff1681525050610de5818773ffffffffffffffffffffffffffffffffffffffff166370a08231306040518263ffffffff1660e01b8152600401808273ffffffffffffffffffffffffffffffffffffffff16815260200191505060206040518083038186803b158015610da057600080fd5b505afa158015610db4573d6000803e3d6000fd5b505050506040513d6020811015610dca57600080fd5b810190808051906020019092919050505060018a0186611941565b60008873ffffffffffffffffffffffffffffffffffffffff166370a08231306040518263ffffffff1660e01b8152600401808273ffffffffffffffffffffffffffffffffffffffff16815260200191505060206040518083038186803b158015610e4e57600080fd5b505afa158015610e62573d6000803e3d6000fd5b505050506040513d6020811015610e7857600080fd5b810190808051906020019092919050505090506000600189018203905060006103e582029050600081830390508b73ffffffffffffffffffffffffffffffffffffffff1663a9059cbb600260009054906101000a900473ffffffffffffffffffffffffffffffffffffffff16836040518363ffffffff1660e01b8152600401808373ffffffffffffffffffffffffffffffffffffffff16815260200182815260200192505050602060405180830381600087803b158015610f3857600080fd5b505af1158015610f4c573d6000803e3d6000fd5b505050506040513d6020811015610f6257600080fd5b8101908080519060200190929190505050508b73ffffffffffffffffffffffffffffffffffffffff1663a9059cbb8e8d6040518363ffffffff1660e01b8152600401808373ffffffffffffffffffffffffffffffffffffffff16815260200182815260200192505050602060405180830381600087803b158015610fe557600080fd5b505af1158015610ff9573d6000803e3d6000fd5b505050506040513d602081101561100f57600080fd5b810190808051906020019092919050505050505050505050505050505050505050505050565b600087878787878787604051602001808873ffffffffffffffffffffffffffffffffffffffff1681526020018773ffffffffffffffffffffffffffffffffffffffff1681526020018681526020018573ffffffffffffffffffffffffffffffffffffffff1681526020018481526020018373ffffffffffffffffffffffffffffffffffffffff1681526020018273ffffffffffffffffffffffffffffffffffffffff168152602001975050505050505050604051602081830303815290604052905060008873ffffffffffffffffffffffffffffffffffffffff16634a248d2a6040518163ffffffff1660e01b815260040160206040518083038186803b15801561113f57600080fd5b505afa158015611153573d6000803e3d6000fd5b505050506040513d602081101561116957600080fd5b810190808051906020019092919050505090508773ffffffffffffffffffffffffffffffffffffffff168173ffffffffffffffffffffffffffffffffffffffff1614156112b4578873ffffffffffffffffffffffffffffffffffffffff1663d0a494e488600030866040518563ffffffff1660e01b8152600401808581526020018481526020018373ffffffffffffffffffffffffffffffffffffffff16815260200180602001828103825283818151815260200191508051906020019080838360005b8381101561124857808201518184015260208101905061122d565b50505050905090810190601f1680156112755780820380516001836020036101000a031916815260200191505b5095505050505050600060405180830381600087803b15801561129757600080fd5b505af11580156112ab573d6000803e3d6000fd5b505050506113b4565b8873ffffffffffffffffffffffffffffffffffffffff1663d0a494e460008930866040518563ffffffff1660e01b8152600401808581526020018481526020018373ffffffffffffffffffffffffffffffffffffffff16815260200180602001828103825283818151815260200191508051906020019080838360005b8381101561134c578082015181840152602081019050611331565b50505050905090810190601f1680156113795780820380516001836020036101000a031916815260200191505b5095505050505050600060405180830381600087803b15801561139b57600080fd5b505af11580156113af573d6000803e3d6000fd5b505050505b505050505050505050565b60008060006113ce8585611ca2565b5090506000806113df888888611e19565b73ffffffffffffffffffffffffffffffffffffffff16630902f1ac6040518163ffffffff1660e01b815260040160606040518083038186803b15801561142457600080fd5b505afa158015611438573d6000803e3d6000fd5b505050506040513d606081101561144e57600080fd5b81019080805190602001909291908051906020019092919080519060200190929190505050506dffffffffffffffffffffffffffff1691506dffffffffffffffffffffffffffff1691508273ffffffffffffffffffffffffffffffffffffffff168773ffffffffffffffffffffffffffffffffffffffff16146114d25780826114d5565b81815b8095508196505050505050935093915050565b600080856114f7858786611f32565b109150600061150f848661201290919063ffffffff16565b9050600061156661156161152e6103e88561201290919063ffffffff16565b86611539578961153b565b8a5b61155c6103e58961154c578d61154e565b8c5b61201290919063ffffffff16565b611f32565b6120a7565b905060006103e58561158c576115876103e88861201290919063ffffffff16565b6115a2565b6115a16103e88961201290919063ffffffff16565b5b816115a957fe5b049050808210156115c357600080945094505050506115dc565b6115d6818361222490919063ffffffff16565b93505050505b94509492505050565b806000806101000a81548173ffffffffffffffffffffffffffffffffffffffff021916908373ffffffffffffffffffffffffffffffffffffffff1602179055508360008151811061163257fe5b602002602001015173ffffffffffffffffffffffffffffffffffffffff1663095ea7b360008054906101000a900473ffffffffffffffffffffffffffffffffffffffff16856040518363ffffffff1660e01b8152600401808373ffffffffffffffffffffffffffffffffffffffff16815260200182815260200192505050602060405180830381600087803b1580156116ca57600080fd5b505af11580156116de573d6000803e3d6000fd5b505050506040513d60208110156116f457600080fd5b8101908080519060200190929190505050611777576040517f08c379a000000000000000000000000000000000000000000000000000000000815260040180806020018281038252601d8152602001807f4275792045786368616e676520617070726f76616c206661696c65642e00000081525060200191505060405180910390fd5b60008054906101000a900473ffffffffffffffffffffffffffffffffffffffff1673ffffffffffffffffffffffffffffffffffffffff166338ed1739848487306104b042016040518663ffffffff1660e01b815260040180868152602001858152602001806020018473ffffffffffffffffffffffffffffffffffffffff168152602001838152602001828103825285818151815260200191508051906020019060200280838360005b8381101561183c578082015181840152602081019050611821565b505050509050019650505050505050600060405180830381600087803b15801561186557600080fd5b505af1158015611879573d6000803e3d6000fd5b505050506040513d6000823e3d601f19601f8201168201806040525060208110156118a357600080fd5b81019080805160405193929190846401000000008211156118c357600080fd5b838201915060208201858111156118d957600080fd5b82518660208202830111640100000000821117156118f657600080fd5b8083526020830192505050908051906020019060200280838360005b8381101561192d578082015181840152602081019050611912565b505050509050016040525050505050505050565b80600160006101000a81548173ffffffffffffffffffffffffffffffffffffffff021916908373ffffffffffffffffffffffffffffffffffffffff1602179055508360008151811061198f57fe5b602002602001015173ffffffffffffffffffffffffffffffffffffffff1663095ea7b3600160009054906101000a900473ffffffffffffffffffffffffffffffffffffffff16856040518363ffffffff1660e01b8152600401808373ffffffffffffffffffffffffffffffffffffffff16815260200182815260200192505050602060405180830381600087803b158015611a2957600080fd5b505af1158015611a3d573d6000803e3d6000fd5b505050506040513d6020811015611a5357600080fd5b8101908080519060200190929190505050611ad6576040517f08c379a000000000000000000000000000000000000000000000000000000000815260040180806020018281038252601e8152602001807f53656c6c2045786368616e676520617070726f76616c206661696c65642e000081525060200191505060405180910390fd5b600160009054906101000a900473ffffffffffffffffffffffffffffffffffffffff1673ffffffffffffffffffffffffffffffffffffffff166338ed1739848487306104b042016040518663ffffffff1660e01b815260040180868152602001858152602001806020018473ffffffffffffffffffffffffffffffffffffffff168152602001838152602001828103825285818151815260200191508051906020019060200280838360005b83811015611b9d578082015181840152602081019050611b82565b505050509050019650505050505050600060405180830381600087803b158015611bc657600080fd5b505af1158015611bda573d6000803e3d6000fd5b505050506040513d6000823e3d601f19601f820116820180604052506020811015611c0457600080fd5b8101908080516040519392919084640100000000821115611c2457600080fd5b83820191506020820185811115611c3a57600080fd5b8251866020820283011164010000000082111715611c5757600080fd5b8083526020830192505050908051906020019060200280838360005b83811015611c8e578082015181840152602081019050611c73565b505050509050016040525050505050505050565b6000808273ffffffffffffffffffffffffffffffffffffffff168473ffffffffffffffffffffffffffffffffffffffff161415611d2a576040517f08c379a00000000000000000000000000000000000000000000000000000000081526004018080602001828103825260258152602001806123986025913960400191505060405180910390fd5b8273ffffffffffffffffffffffffffffffffffffffff168473ffffffffffffffffffffffffffffffffffffffff1610611d64578284611d67565b83835b8092508193505050600073ffffffffffffffffffffffffffffffffffffffff168273ffffffffffffffffffffffffffffffffffffffff161415611e12576040517f08c379a000000000000000000000000000000000000000000000000000000000815260040180806020018281038252601e8152602001807f556e697377617056324c6962726172793a205a45524f5f41444452455353000081525060200191505060405180910390fd5b9250929050565b6000806000611e288585611ca2565b91509150858282604051602001808373ffffffffffffffffffffffffffffffffffffffff1660601b81526014018273ffffffffffffffffffffffffffffffffffffffff1660601b8152601401925050506040516020818303038152906040528051906020012060405160200180807fff000000000000000000000000000000000000000000000000000000000000008152506001018373ffffffffffffffffffffffffffffffffffffffff1660601b8152601401828152602001807f96e8ac4277198ff8b6f785478aa9a39f403cb768dd02cbee326c3e7da348845f815250602001925050506040516020818303038152906040528051906020012060001c925050509392505050565b6000806000611f4186866122a7565b9150915060008480611f4f57fe5b868809905082811115611f63576001820391505b80830392506000821415611f8557848381611f7a57fe5b04935050505061200b565b848210611ffa576040517f08c379a000000000000000000000000000000000000000000000000000000000815260040180806020018281038252601a8152602001807f46756c6c4d6174683a2046554c4c4449565f4f564552464c4f5700000000000081525060200191505060405180910390fd5b6120058383876122fa565b93505050505b9392505050565b60008082148061202f575082828385029250828161202c57fe5b04145b6120a1576040517f08c379a00000000000000000000000000000000000000000000000000000000081526004018080602001828103825260148152602001807f64732d6d6174682d6d756c2d6f766572666c6f7700000000000000000000000081525060200191505060405180910390fd5b92915050565b6000808214156120ba576000905061221f565b600082905060006001905070010000000000000000000000000000000082106120ec57608082901c9150604081901b90505b68010000000000000000821061210b57604082901c9150602081901b90505b640100000000821061212657602082901c9150601081901b90505b62010000821061213f57601082901c9150600881901b90505b610100821061215757600882901c9150600481901b90505b6010821061216e57600482901c9150600281901b90505b6008821061217e57600181901b90505b600181858161218957fe5b048201901c9050600181858161219b57fe5b048201901c905060018185816121ad57fe5b048201901c905060018185816121bf57fe5b048201901c905060018185816121d157fe5b048201901c905060018185816121e357fe5b048201901c905060018185816121f557fe5b048201901c9050600081858161220757fe5b0490508082106122175780612219565b815b93505050505b919050565b60008282840391508111156122a1576040517f08c379a00000000000000000000000000000000000000000000000000000000081526004018080602001828103825260158152602001807f64732d6d6174682d7375622d756e646572666c6f77000000000000000000000081525060200191505060405180910390fd5b92915050565b60008060007fffffffffffffffffffffffffffffffffffffffffffffffffffffffffffffffff806122d457fe5b848609905083850292508281039150828110156122f2576001820391505b509250929050565b600080826000038316905080838161230e57fe5b04925080858161231a57fe5b049450600181826000038161232b57fe5b0401840285019450600060019050808402600203810290508084026002038102905080840260020381029050808402600203810290508084026002038102905080840260020381029050808402600203810290508084026002038102905080860292505050939250505056fe556e697377617056324c6962726172793a204944454e544943414c5f4144445245535345534578616d706c6553776170546f50726963653a205a45524f5f414d4f554e545f494ea2646970667358221220aed628f0d39849543d49c6e5726c599a6267670d8da26ec3616fa3b5159ad77b64736f6c63430007060033",
  "immutableReferences": {},
  "source": "// SPDX-License-Identifier: MIT\r\npragma solidity >= 0.6.6;\r\n\r\nimport \"./IUniswapV2Router02.sol\";\r\nimport './IUniswapV2Pair.sol';\r\nimport './Babylonian.sol';\r\nimport './TransferHelper.sol';\r\n\r\nimport './UniswapV2LiquidityMathLibrary.sol';\r\nimport './IERC20.sol';\r\nimport './SafeMath.sol';\r\nimport './IUniswapV2Router01.sol';\r\nimport './UniswapV2Library.sol';\r\n\r\n\r\ninterface IDODO {\r\n    function flashLoan(\r\n        uint256 baseAmount,\r\n        uint256 quoteAmount,\r\n        address assetTo,\r\n        bytes calldata data\r\n    ) external;\r\n\r\n    function _BASE_TOKEN_() external view returns (address);\r\n}\r\n\r\n\r\ncontract Arbitrage {\r\n\r\n    IUniswapV2Router02 public  buyRouter;\r\n    IUniswapV2Router02 public  sellRouter;\r\n\r\n    address public owner;\r\n    // It's easy to get lost so here is the basic route of the FlashLoan\r\n    // dodoFlashLoan() => IDODO._BASE_TOKEN_() => DDPFlashLoanCall() => _FlashLoanCallBack()\r\n\r\n    function dodoFlashLoan(\r\n    address flashLoanPool, //You will make a flashloan from this DODOV2 pool\r\n    address loanToken,\r\n    uint256 loanAmount,\r\n    \r\n    // These are extra parameters we want to send through the dodoFlashLoan() function. \r\n    // These will be passed back from IDODO _BASE_TOKEN_() function to \r\n    // the correct ***FlashLoanCall() function based on the pool address provided.\r\n\r\n    address token1,\r\n    uint256 balanceBefore, \r\n    address _buyRouter,\r\n    address _sellRouter\r\n\r\n    ) internal  {\r\n\r\n        // Custom Structured Data\r\n        bytes memory data = abi.encode(flashLoanPool, loanToken, loanAmount, token1, balanceBefore, _buyRouter, _sellRouter);\r\n\r\n        //DODO \r\n        address flashLoanBase = IDODO(flashLoanPool)._BASE_TOKEN_();\r\n        if(flashLoanBase == loanToken) {\r\n            IDODO(flashLoanPool).flashLoan(loanAmount, 0, address(this), data);\r\n        } else {\r\n            IDODO(flashLoanPool).flashLoan(0, loanAmount, address(this), data);\r\n        }\r\n    }\r\n\r\n    function executeTrade(\r\n        address _flashLoanPool,\r\n        address _token0,\r\n        address _token1,\r\n        uint256 _flashAmount,\r\n        address _buyRouter,\r\n        address _sellRouter\r\n    ) external {\r\n        //Set Extra Variables for Custom Data\r\n        uint256 balanceBefore = IERC20(_token0).balanceOf(address(this));\r\n\r\n        //Call FlashLoan with required and extra parameters. That have been sent by executeTrade() parameters.\r\n        // On execution the dodoFlashLoan should trigger callback function based on the Factory Contract\r\n        // that contains the pool specified by _flashLoanPool\r\n        dodoFlashLoan(_flashLoanPool, _token0, _flashAmount, _token1, balanceBefore, _buyRouter, _sellRouter); \r\n    }\r\n\r\n    // swaps an amount of either token such that the trade is profit-maximizing, given an external true price\r\n    // true price is expressed in the ratio of token A to token B\r\n    // caller must approve this contract to spend whichever token is intended to be swapped\r\n    function getMaxSwap(\r\n        address tokenA,\r\n        address tokenB,\r\n        uint256 truePriceTokenA,\r\n        uint256 truePriceTokenB,\r\n        uint256 maxSpendTokenA,\r\n        uint256 maxSpendTokenB,\r\n        address factory\r\n    ) public view returns (uint256) {\r\n        // true price is expressed as a ratio, so both values must be non-zero\r\n        require(truePriceTokenA != 0 && truePriceTokenB != 0, \"ExampleSwapToPrice: ZERO_PRICE\");\r\n        // caller can specify 0 for either if they wish to swap in only one direction, but not both\r\n        require(maxSpendTokenA != 0 || maxSpendTokenB != 0, \"ExampleSwapToPrice: ZERO_SPEND\");\r\n\r\n\r\n        bool aToB;\r\n        uint256 amountIn;\r\n        {\r\n            (uint256 reserveA, uint256 reserveB) = UniswapV2Library.getReserves(factory, tokenA, tokenB);\r\n            (aToB, amountIn) = UniswapV2LiquidityMathLibrary.computeProfitMaximizingTrade(\r\n                truePriceTokenA, truePriceTokenB,\r\n                reserveA, reserveB\r\n            );\r\n        }\r\n\r\n        require(amountIn > 0, 'ExampleSwapToPrice: ZERO_AMOUNT_IN');\r\n\r\n        // spend up to the allowance of the token in\r\n        uint256 maxSpend = aToB ? maxSpendTokenA : maxSpendTokenB;\r\n        if (amountIn > maxSpend) {\r\n            amountIn = maxSpend;\r\n        }\r\n\r\n        address tokenIn = aToB ? tokenA : tokenB;\r\n        address tokenOut = aToB ? tokenB : tokenA;\r\n\r\n        address[] memory path = new address[](2);\r\n        path[0] = tokenIn;\r\n        path[1] = tokenOut;\r\n\r\n        return amountIn;\r\n    }\r\n\r\n    function DVMFlashLoanCall(\r\n        address sender, \r\n        uint256 baseAmount, \r\n        uint256 quoteAmount,\r\n        bytes calldata data\r\n        ) external {\r\n        _flashLoanCallBack(sender, baseAmount, quoteAmount, data);\r\n    }\r\n\r\n    //Note: CallBack function executed by DODOV2(DPP) flashLoan pool\r\n    function DPPFlashLoanCall(\r\n        address sender,\r\n        uint256 baseAmount,\r\n        uint256 quoteAmount,\r\n        bytes calldata data\r\n           ) external {\r\n        _flashLoanCallBack(sender, baseAmount, quoteAmount, data);\r\n    }\r\n\r\n    //Note: CallBack function executed by DODOV2(DSP) flashLoan pool\r\n    function DSPFlashLoanCall(\r\n        address sender, \r\n        uint256 baseAmount, \r\n        uint256 quoteAmount,\r\n        bytes calldata data\r\n         ) external {\r\n        _flashLoanCallBack(sender,baseAmount,quoteAmount,data);\r\n    }\r\n\r\n\r\n    function _flashLoanCallBack(\r\n        address sender, \r\n        uint256, \r\n        uint256,\r\n        bytes calldata data\r\n        ) internal {\r\n        (\r\n            address flashLoanPool,\r\n            address token0,\r\n            uint256 flashAmount,\r\n            address token1,\r\n            uint256 balanceBefore,\r\n            address _buyRouter,\r\n            address _sellRouter\r\n        ) = abi.decode(data, (address, address, uint256, address, uint256, address, address));\r\n\r\n        uint256 balanceAfter = IERC20(token0).balanceOf(address(this));\r\n\r\n        require(\r\n            sender == address(this) && msg.sender == flashLoanPool, \r\n            \"HANDLE_FLASH_DENIED\"\r\n        );\r\n\r\n        // Make sure that there is enough tokens in \r\n        // the msg.senderaccount.\r\n        require(balanceAfter - balanceBefore == flashAmount, \"contract did not get the loan\");\r\n\r\n        // Set an in-memory array variable called path that \r\n        // will hold two addresses in an Array.\r\n        address[] memory path = new address[](2);\r\n\r\n        path[0] = token0;\r\n        path[1] = token1;\r\n\r\n        _swapOnBuyExchange(path, flashAmount, 0, _buyRouter);\r\n\r\n        path[0] = token1;\r\n        path[1] = token0;\r\n\r\n        _swapOnSellExchange(\r\n            path,\r\n            IERC20(token1).balanceOf(address(this)),\r\n            (flashAmount + 1),\r\n            _sellRouter\r\n        );      \r\n\r\n        uint256 balanceAfterSwap = IERC20(token0).balanceOf(address(this));\r\n        uint256 arbitrageReturns = balanceAfterSwap - (flashAmount + 1);\r\n        uint256 swapyardfee = arbitrageReturns * 997;\r\n        uint256 profit = arbitrageReturns - swapyardfee;\r\n\r\n        // Withdraw Profit\r\n        IERC20(token0).transfer(owner, profit);\r\n        \r\n        // Payback Flashloan\r\n        IERC20(token0).transfer(flashLoanPool, flashAmount);\r\n    }\r\n\r\n    // -- INTERNAL FUNCTIONS -- //\r\n\r\n    function _swapOnSellExchange(\r\n        address[] memory _path,\r\n        uint256 _amountIn,\r\n        uint256 _amountOut,\r\n        address _sellRouter\r\n    ) internal {\r\n\r\n        sellRouter = IUniswapV2Router02(_sellRouter); \r\n\r\n        require(\r\n            // Get Approval For Swap\r\n            IERC20(_path[0]).approve(address(sellRouter), _amountIn),\r\n            \"Sell Exchange approval failed.\"\r\n        );\r\n\r\n        //Perform the Swap\r\n        sellRouter.swapExactTokensForTokens(\r\n            _amountIn,\r\n            _amountOut,\r\n            _path,\r\n            address(this),\r\n            (block.timestamp + 1200)\r\n        );\r\n    }\r\n\r\n    function _swapOnBuyExchange(\r\n        address[] memory _path,\r\n        uint256 _amountIn,\r\n        uint256 _amountOut,\r\n        address _buyRouter\r\n    ) internal {\r\n\r\n        buyRouter = IUniswapV2Router02(_buyRouter); \r\n\r\n        require(\r\n            //Get Approval for Swap\r\n            IERC20(_path[0]).approve(address(buyRouter), _amountIn),\r\n            \"Buy Exchange approval failed.\"\r\n        );\r\n\r\n        buyRouter.swapExactTokensForTokens(\r\n            _amountIn,\r\n            _amountOut,\r\n            _path,\r\n            address(this),\r\n            (block.timestamp + 1200)\r\n        );\r\n    }\r\n}",
  "sourcePath": "/mnt/c/pr0/swapyard_react/contracts/Arbitrage.sol",
  "compiler": {
    "name": "solc",
    "version": "0.7.6+commit.7338295f.Emscripten.clang"
  },
  "schemaVersion": "3.4.3",
  "updatedAt": "2022-06-24T17:08:45.482Z",
  "networkType": "ethereum",
  "devdoc": {
    "kind": "dev",
    "methods": {},
    "version": 1
  },
  "userdoc": {
    "kind": "user",
    "methods": {},
    "version": 1
  }
}